:100000000C9446000C9495000C94C1000C9465006F
:100010000C9465000C9465000C9465000C946500CC
:100020000C9465000C9465000C9465000C946500BC
:100030000C9465000C9465000C9480000C94650091
:100040000C9465000C9465000C9465000C9465009C
:100050000C9465000C9465000C9465000C9465008C
:100060000C9465000C9465000C9465000C9465007C
:100070000C9465000C9465000C9465000C9465006C
:100080000C9465000C9465000C94650011241FBE4F
:10009000CFEFD0E1DEBFCDBF12E0A0E0B1E0ECEAEF
:1000A000FFE000E00BBF02C007900D92AA33B1073A
:1000B000D9F712E0AAE3B2E001C01D92A434B1075F
:1000C000E1F70E94A8010C94D4070C9400007894E6
:1000D0008EEF82B910929B0088E980939A0086E0A7
:1000E00080939D001092980087E680939900089570
:1000F000982F80919B0085FFFCCF90939C000895E2
:100100001F920F920FB60F9211248F939F938CED35
:100110009BE09DBD8CBD81E080933D029F918F91BE
:100120000F900FBE0F901F9018951F920F920FB651
:100130000F9211242F938F939F9380913A02909165
:100140003B02019749F48091300190913101C296B0
:100150009093310180933001809130019091310171
:100160008255934031F488EC90E090933101809374
:1001700030019F918F912F910F900FBE0F901F9084
:1001800018951F920F920FB60F9211248F939F9381
:1001900080913A0290913B02892B39F481E090E002
:1001A00090933B0280933A0204C010923B0210925B
:1001B0003A029F918F910F900FBE0F901F9018954C
:1001C00090E007C00F920F900F920F900F920F9038
:1001D0009F5F9817B8F308950F931F93CF93DF9302
:1001E0008C01C0E0D0E00DC08AEF0E94E0008AEFF1
:1001F0000E94E0008AEF0E94E0008AEF0E94E00087
:100200002196C017D10780F3DF91CF911F910F91F5
:10021000089585BB1D9A81E00E94E0001D988AEF39
:100220000E94E00008951F9888EC90E00E94EC0086
:100230008CE00E94090184E690E00E94EC000895A1
:100240001F9888EC90E00E94EC008FE00E9409016A
:1002500084E690E00E94EC0008951F9881E090E011
:100260000E94EC0081E00E94090184E090E00E947D
:10027000EC0008951F9888EC90E00E94EC0088E361
:100280000E9409018FE00E94090181E00E9409019A
:1002900084E690E00E94EC0008950F931F93082FCE
:1002A000162F1F9881E090E00E94EC00113019F4A5
:1002B000802F805802C0802F80540E9409011F9116
:1002C0000F910895CF93DF93EC011F9A81E00E9474
:1002D000E00003C021960E94090188818823D1F79C
:1002E000DF91CF9108951F93182F1F9A81E00E94EC
:1002F000E00015BB1D9A81E00E94E0001D988AEF86
:100300000E94E0001F9108958FEF8ABB84BB809309
:1003100064008BBB8CEB83B980E18093650008950A
:100320008BE380936A0087E089BF18BE84E08EBDAE
:1003300087BF86BF8CED9BE09DBD8CBD089510925C
:1003400043021092420210923D0210923C02089524
:100350002F923F924F925F926F927F928F929F92D5
:10036000AF92BF92CF92DF92EF92FF920F931F93C3
:10037000DF93CF9300D000D0CDB7DEB781E087B94F
:1003800087E886B90E9484010E94900178940E94B7
:1003900067000E943A010E94130186EC86B981E051
:1003A00090E00E94EC00349BFECF24B135B1309335
:1003B000400220933F0280913001909131018217D9
:1003C000930744F480919B0085FFFCCFE1E6E09326
:1003D0009C0007C080919B0085FFFCCFF0E3F09369
:1003E0009C0080913A0290913B02892B09F05BC0FE
:1003F00080E061E00E944D0180E091E00E94620196
:1004000080E062E00E944D0180E191E00E94620183
:1004100080913F029091400268EE73E00E9476075F
:10042000862F805D0E94730180913F02909140026F
:1004300068EE73E00E94760764E670E00E9476073B
:10044000862F805D0E94730180913F02909140024F
:1004500068EE73E00E94760764E670E00E9476071B
:100460006AE070E00E947607862F805D0E9473012B
:1004700080913F029091400268EE73E00E947607FF
:1004800064E670E00E9476076AE070E00E947607FA
:10049000805D0E9473018DE50E94730184E690E007
:1004A0000E94EC0056C080E061E00E944D0188E1AE
:1004B00091E00E94620180E062E00E944D0188E2CA
:1004C00091E00E946201809130019091310168EECB
:1004D00073E00E947607862F805D0E9473018091F1
:1004E00030019091310168EE73E00E94760764E676
:1004F00070E00E947607862F805D0E9473018091D4
:1005000030019091310168EE73E00E94760764E655
:1005100070E00E9476076AE070E00E947607862FFE
:10052000805D0E947301809130019091310168EEED
:1005300073E00E94760764E670E00E9476076AE046
:1005400070E00E947607805D0E9473018DE50E9435
:10055000730120913F0230914002C0903001D09051
:1005600031012C153D0514F01BBA02C1B9018827D1
:1005700077FD8095982F0E9423057B018C01B601A1
:10058000882777FD8095982F0E9423053B014C0119
:1005900026E636E646E65FE30E94C9035B016C018E
:1005A000C801B701A60195010E94C304882354F035
:1005B000C801B701A60195010E94F304882314F431
:1005C00081E01BC0C401B3012DEC3CEC4CE45FE3C3
:1005D0000E94C9031B012C01C801B701A2019101AE
:1005E0000E94C30488235CF0C801B701A6019501ED
:1005F0000E94F30488231CF483E08BBBB9C0C401C0
:10060000B30123E333E343E35FE30E94C9035B01E8
:100610006C01C801B701A60195010E94C30488239B
:1006200054F0C801B701A20191010E94F30488238C
:1006300014F4E7E09CC0C401B3012AE939E949E1B7
:100640005FE30E94C9031B012C01C801B701A2018D
:1006500091010E94C304882354F0C801B701A60188
:1006600095010E94F304882314F4FFE057C0C401ED
:10067000B30120E030E040E05FE30E94C9035B018A
:100680006C01C801B701A60195010E94C30488232B
:1006900054F0C801B701A20191010E94F30488231C
:1006A00014F48FE1AACFC401B3012DEC3CEC4CEC67
:1006B0005EE30E94C9031B012C01C801B701A2011E
:1006C00091010E94C304882354F0C801B701A60118
:1006D00095010E94F304882314F4EFE348C0C40199
:1006E000B3012AE939E949E95EE30E94C903698354
:1006F0007A838B839C83C801B70129813A814B811E
:100700005C810E94C30488235CF0C801B701A20188
:1007100091010E94F30488231CF4FFE7FBBB28C06F
:10072000C401B3012DEC3CEC4CE45EE30E94C90330
:100730005B016C01C801B701A60195010E94C304C9
:10074000882364F0C801B70129813A814B815C811B
:100750000E94F304882314F48FE74FCFC801B70138
:10076000A60195010E94F304882314F4EFEFEBBB7C
:1007700080913D02813009F010CE80913C028F5F64
:1007800080933C028C3311F410923C0210923D0293
:1007900004CEA0E2B0E0EFECF3E00C949D07698397
:1007A0007A838B839C832D833E834F835887CE012E
:1007B0000196BE01675F7F4F0E94A506CE01059698
:1007C000BE016F5E7F4F0E94A5069985923088F02A
:1007D00089898230C8F0943019F4823051F404C011
:1007E000843029F4923081F482E391E0C6C09230E3
:1007F00049F420E09A858A89981321E02A87CE015E
:100800000996BBC0823049F420E09A858A89981302
:1008100021E02A8BCE014196B0C02D843E844F84C6
:1008200058886D887E888F88988CEE24FF248701F5
:10083000AA24BB24650140E050E060E070E0E0E005
:10084000F0E0C10181709070892BE9F0E60CF71C93
:10085000081D191D9A01AB012A0D3B1D4C1D5D1D84
:1008600080E090E0A0E0B0E0E614F7040805190588
:1008700020F481E090E0A0E0B0E0BA01A901480FC7
:10088000591F6A1F7B1FAA0CBB1CCC1CDD1C97FECA
:1008900008C081E090E0A0E0B0E0A82AB92ACA2A06
:1008A000DB2A3196E032F10549F0660C771C881C92
:1008B000991C5694479437942794C3CFFA85EA89B4
:1008C0002B893C898B859C85280F391F2E5F3F4FD4
:1008D00017C0CA0181709070892B61F01695079539
:1008E000F794E79480E090E0A0E0B0E8E82AF92AE5
:1008F0000A2B1B2B76956795579547952F5F3F4F92
:1009000077FDE7CF0CC0440F551F661F771F17FDFB
:100910004160EE0CFF1C001F111F21503040403081
:1009200090E0590790E0690790E4790760F32B8F16
:100930003C8FDB01CA018F779070A070B07080345B
:100940009105A105B10561F447FD0AC0E114F10468
:100950000105110529F0405C5F4F6F4F7F4F4078D4
:100960001A8EFE1711F081E08A8F4D8F5E8F6F8F88
:1009700078A383E0898FCE0149960E94D005A09686
:10098000E2E10C94B907A8E1B0E0E9ECF4E00C94E2
:10099000A90769837A838B839C832D833E834F834E
:1009A000588789E0E82EF12CEC0EFD1ECE01019651
:1009B000B7010E94A5068E010F5E1F4FCE0105965E
:1009C000B8010E94A5068985823040F0898982306D
:1009D00028F0C701B8010E941D0701C08FEF68967B
:1009E000E6E00C94C507A8E1B0E0E9EFF4E00C9470
:1009F000A90769837A838B839C832D833E834F83EE
:100A0000588789E0E82EF12CEC0EFD1ECE010196F0
:100A1000B7010E94A5068E010F5E1F4FCE010596FD
:100A2000B8010E94A5068985823040F0898982300C
:100A300028F0C701B8010E941D0701C081E0689637
:100A4000E6E00C94C507A8E0B0E0E9E2F5E00C941C
:100A5000A6079B01AC0183E08983DA01C9018827DD
:100A6000B7FD83959927AA27BB27B82E21153105F5
:100A70004105510519F482E089833AC08823A9F021
:100A8000203080E0380780E0480780E8580729F4E4
:100A900060E070E080E09FEC30C0EE24FF2487012E
:100AA000E21AF30A040B150B02C079018A018EE1E8
:100AB000C82ED12CDC82CB82ED82FE820F83188778
:100AC000C801B7010E94810501971816190684F420
:100AD000082E04C0EE0CFF1C001F111F0A94D2F751
:100AE000ED82FE820F831887C81AD90ADC82CB8276
:100AF000BA82CE0101960E94D0052896E9E00C94B6
:100B0000C207EF92FF920F931F937B018C0180E04D
:100B1000E81680E0F80681E0080780E0180788F40E
:100B20008FEFE816F1040105110531F028F088E097
:100B300090E0A0E0B0E017C080E090E0A0E0B0E07E
:100B400012C080E0E81680E0F80680E0080781E047
:100B5000180728F088E190E0A0E0B0E004C080E150
:100B600090E0A0E0B0E020E230E040E050E0281B60
:100B7000390B4A0B5B0B04C016950795F794E79465
:100B80008A95D2F7F701E65CFE4F8081281B310978
:100B900041095109C9011F910F91FF90EF900895EC
:100BA000DF92EF92FF920F931F93FC01E480F58098
:100BB00006811781D1808081823048F480E090E006
:100BC000A0E1B0E0E82AF92A0A2B1B2BA5C084304B
:100BD00009F49FC0823021F4EE24FF24870105C070
:100BE000E114F1040105110519F4E0E0F0E096C00C
:100BF000628173819FEF623879070CF05BC022E855
:100C00003FEF261B370B2A3131052CF020E030E076
:100C100040E050E02AC0B801A701022E04C076953A
:100C20006795579547950A94D2F781E090E0A0E048
:100C3000B0E004C0880F991FAA1FBB1F2A95D2F7E6
:100C40000197A109B1098E219F21A023B12300970B
:100C5000A105B10521F081E090E0A0E0B0E09A01AB
:100C6000AB01282B392B4A2B5B2BDA01C9018F777B
:100C70009070A070B07080349105A105B10539F471
:100C800027FF09C0205C3F4F4F4F5F4F04C0215CDE
:100C90003F4F4F4F5F4FE0E0F0E02030A0E03A07D9
:100CA000A0E04A07A0E45A0710F0E1E0F0E0790183
:100CB0008A0127C06038710564F5FB01E158FF4FD8
:100CC000D801C7018F779070A070B0708034910503
:100CD000A105B10539F4E7FE0DC080E490E0A0E085
:100CE000B0E004C08FE390E0A0E0B0E0E80EF91EB1
:100CF0000A1F1B1F17FF05C016950795F794E79469
:100D0000319687E016950795F794E7948A95D1F781
:100D100005C0EE24FF248701EFEFF0E06E2F67950A
:100D200066276795902F9F77D794DD24D7948E2FD1
:100D30008695492F462B582F5D29B701CA011F916F
:100D40000F91FF90EF90DF900895FC01DB0140814F
:100D500051812281622F6F7770E0221F2227221F8C
:100D60009381892F880F822B282F30E0991F992794
:100D7000991F11969C93119721153105A9F54115DD
:100D800051056105710511F482E037C082E89FEFDB
:100D900013969C938E9312979A01AB0167E0220FF2
:100DA000331F441F551F6A95D1F783E08C930DC004
:100DB000220F331F441F551F12968D919C9113973C
:100DC000019713969C938E931297203080E03807FA
:100DD00080E0480780E4580758F314962D933D931C
:100DE0004D935C93179708952F3F310579F4411582
:100DF00051056105710519F484E08C93089564FF31
:100E000003C081E08C9312C01C9210C02F57304059
:100E100013963C932E93129783E08C9387E0440FB4
:100E2000551F661F771F8A95D1F7706414964D93EE
:100E30005D936D937C93179708951F93DC01FB01DD
:100E40009C91923008F447C08081823008F443C0FE
:100E5000943051F411961C91843099F58181682F5A
:100E600070E0611B71093FC0843021F0923031F491
:100E70008230B9F18181882389F12DC011961C91AE
:100E800011978230F1F081811817D9F412962D91C3
:100E90003C911397828193818217930794F02817CE
:100EA0003907BCF014968D919D910D90BC91A02DA9
:100EB0002481358146815781281739074A075B0706
:100EC00018F4112341F00AC082179307A407B5074D
:100ED00040F4112319F061E070E005C06FEF7FEF7F
:100EE00002C060E070E0CB011F91089597FB092ECE
:100EF00007260AD077FD04D00CD006D000201AF4C3
:100F0000709561957F4F0895F6F7909581959F4F65
:100F10000895AA1BBB1B51E107C0AA1FBB1FA61740
:100F2000B70710F0A61BB70B881F991F5A95A9F792
:100F300080959095BC01CD0108952F923F924F92DC
:100F40005F926F927F928F929F92AF92BF92CF9259
:100F5000DF92EF92FF920F931F93CF93DF93CDB762
:100F6000DEB7CA1BDB0B0FB6F894DEBF0FBECDBFDA
:100F700009942A88398848885F846E847D848C84AB
:100F80009B84AA84B984C884DF80EE80FD800C81B4
:100F90001B81AA81B981CE0FD11D0FB6F894DEBF97
:0C0FA0000FBECDBFED010895F894FFCF07
:100FAC005B50524553454E542056414C55455D00BF
:100FBC005B4E4F57203D20005B53455454494E47E0
:100FCC002056414C55455D005B4D4158203D20005D
:100FDC00C800000000000000000000010202030332
:100FEC0003030404040404040404050505050505B1
:100FFC00050505050505050505050606060606068F
:10100C000606060606060606060606060606060674
:10101C00060606060606060606060707070707075E
:10102C000707070707070707070707070707070744
:10103C000707070707070707070707070707070734
:10104C000707070707070707070707070707070724
:10105C00070707070707070707070808080808080E
:10106C0008080808080808080808080808080808F4
:10107C0008080808080808080808080808080808E4
:10108C0008080808080808080808080808080808D4
:10109C0008080808080808080808080808080808C4
:1010AC0008080808080808080808080808080808B4
:1010BC0008080808080808080808080808080808A4
:1010CC000808080808080808080808080808080894
:0A10DC0008080808080808080808BA
:00000001FF
