:100000000C9446000C945D000C945D000C945D0013
:100010000C945D000C945D000C945D000C945D00EC
:100020000C945D000C945D000C945D000C945D00DC
:100030000C945D000C945D000C945D000C945D00CC
:100040000C945D000C945D000C945D000C945D00BC
:100050000C945D000C945D000C945D000C945D00AC
:100060000C945D000C945D000C945D000C945D009C
:100070000C945D000C945D000C945D000C945D008C
:100080000C945D000C945D000C945D0011241FBE67
:10009000CFEFD0E1DEBFCDBF11E0A0E0B1E0E6ECF4
:1000A000F2E000E00BBF02C007900D92A831B1074B
:1000B000D9F70E941B010C9461010C9400001BB83D
:1000C00088E18AB986E0809395001092900087E6D7
:1000D00089B9089590E007C00F920F900F920F908A
:1000E0000F920F909F5F9817B8F308950F931F9387
:1000F000CF93DF938C01C0E0D0E00DC08AEF0E9467
:100100006A008AEF0E946A008AEF0E946A008AEF02
:100110000E946A002196C017D10780F3DF91CF912A
:100120001F910F91089585BB1D9A81E00E946A007E
:100130001D988AEF0E946A0008951F9888EC90E04D
:100140000E9476008CE00E94930084E690E00E947A
:10015000760008951F9888EC90E00E9476008FE06A
:100160000E94930084E690E00E94760008951F9814
:1001700081E090E00E94760081E00E94930084E09C
:1001800090E00E94760008951F9888EC90E00E940D
:10019000760088E30E9493008FE00E94930081E044
:1001A0000E94930084E690E00E94760008950F93E9
:1001B0001F93082F162F1F9881E090E00E94760071
:1001C000113019F4802F805802C0802F80540E9473
:1001D00093001F910F910895CF93DF93EC011F9A25
:1001E00081E00E946A0003C021960E9493008881EA
:1001F0008823D1F7DF91CF9108951F93182F1F9A6D
:1002000081E00E946A0015BB1D9A81E00E946A008D
:100210001D988AEF0E946A001F9108959FEF9ABB74
:1002200094BB92B98CEB83B99093640008955F9B63
:10023000FECF8CB108950F931F939FEF9ABB94BB91
:1002400092B98CEB83B9909364000E94C4000E9421
:100250009D001BB888E18AB986E0809395001092D2
:10026000900087E689B900E11FEF5F9BFECF8CB15C
:100270008136D9F480E061E00E94D70080E091E00F
:100280000E94EC001BBA84E690E00E9476001BBB43
:100290001092650084E690E00E947600009365006D
:1002A00084E690E00E947600E0CF80E061E00E946A
:1002B000D7008DE091E00E94EC00009365001BBB2D
:0602C000D4CFF894FFCF3B
:1002C6005B204E4F495345202121215D005B205084
:0802D60045414345205D000095
:00000001FF
